:100000000C945C000C9479000C9479000C947900A9
:100010000C9479000C9479000C9479000C9479007C
:100020000C9479000C9479000C9479000C9479006C
:100030000C9479000C9479000C9479000C9479005C
:100040000C94ED000C9479000C9479000C947900D8
:100050000C9479000C9479000C9479000C9479003C
:100060000C9479000C947900000000002400270013
:100070002A0000000000250028002B0004040404CE
:100080000404040402020202020203030303030342
:10009000010204081020408001020408102001021F
:1000A00004081020000000080002010000030407FB
:1000B000000000000000000011241FBECFEFD8E0B8
:1000C000DEBFCDBF11E0A0E0B1E0EEEFF3E002C093
:1000D00005900D92A83DB107D9F721E0A8EDB1E058
:1000E00001C01D92A13EB207E1F70E9437010C94B6
:1000F000FD010C94000090E0FC01EC55FF4F2491B1
:10010000FC01E057FF4F3491FC01E458FF4FE491AC
:10011000EE2309F43CC0222339F1233091F038F466
:100120002130A9F0223001F584B58F7D12C027302F
:1001300091F02830A1F02430B9F4809180008F7DB7
:1001400003C0809180008F77809380000DC084B5BC
:100150008F7784BD09C08091B0008F7703C08091F4
:10016000B0008F7D8093B000F0E0EE0FFF1FEE58DF
:10017000FF4FA591B4919FB7F894611104C08C9181
:100180003095382302C0EC913E2B3C939FBF0895DD
:100190003FB7F8948091DD019091DE01A091DF01DD
:1001A000B091E00126B5A89B05C02F3F19F001963C
:1001B000A11DB11D3FBFBA2FA92F982F8827820FED
:1001C000911DA11DB11DBC01CD0142E0660F771F3D
:1001D000881F991F4A95D1F708951F920F920FB665
:1001E0000F9211242F933F938F939F93AF93BF93BD
:1001F0008091D9019091DA01A091DB01B091DC01ED
:100200003091D80123E0230F2D3720F40196A11D52
:10021000B11D05C026E8230F0296A11DB11D209334
:10022000D8018093D9019093DA01A093DB01B093B8
:10023000DC018091DD019091DE01A091DF01B091A0
:10024000E0010196A11DB11D8093DD019093DE01B7
:10025000A093DF01B093E001BF91AF919F918F9187
:100260003F912F910F900FBE0F901F90189578948B
:1002700084B5826084BD84B5816084BD85B58260AB
:1002800085BD85B5816085BD80916E00816080935C
:100290006E001092810080918100826080938100C5
:1002A00080918100816080938100809180008160D5
:1002B000809380008091B10084608093B100809130
:1002C000B00081608093B00080917A008460809358
:1002D0007A0080917A00826080937A0080917A001F
:1002E000816080937A0080917A00806880937A00A0
:1002F0001092C10022E030E0F901E057FF4F449135
:10030000F901E458FF4F8491882399F090E0880F19
:10031000991FFC01E859FF4FA591B491FC01EE58DB
:10032000FF4F859194918FB7F894EC91E42BEC9367
:100330008FBF2F5F3F4F2E303105F1F620E0A22E08
:1003400020E0B22EC0E0D1E002E310E06E0196E0C2
:10035000792E60E082E00E947B0061E0872D0E94A0
:100360007B00F601E1906F0187E0882E912CF12C43
:10037000B701082C02C0759567950A94E2F7617081
:1003800083E00E947B0061E084E00E947B0060E0EB
:1003900084E00E947B00F1E08F1A910848F761E049
:1003A00082E00E947B000E94C8001B012C010E9479
:1003B000C800DC01CB0182199309A409B509883E64
:1003C0009340A105B10598F360E0872D0E947B0062
:1003D00073948EE07812BDCF0150110909F0B6CFA9
:1003E0002896F2E0C832DF0709F0AECFA114B104BD
:0E03F00009F4A8CF0E940000A5CFF894FFCF1B
:1003FE00FF0301EDED0103FFFF01016D6D0193FFA1
:10040E00FF83017D7D39BBFFFF01017D7D0183FFF0
:10041E00FF01016D6D6D7DFFFF0101EDEDEDFDFF46
:10042E00FF83017D5D199BFFFF0101EFEF0101FFCE
:10043E00FFFF7D01017DFFFFFF9F9F7D0181FDFF7E
:10044E00FF0101C793397DFFFF01017F7F7F7FFF92
:10045E00FF0101F3E7F30101FF0101F3E7CF010112
:10046E00FF83017D7D0183FFFF0101DDDDC1E3FF20
:10047E00FFC381BD9D0143FFFF0101CD8D2173FFA0
:10048E00FFB3216D6D099BFFFFF9FD0101FDF9FF22
:10049E00FF81017F7F0101FFFFC1813F3F81C1FFCE
:1004AE00FF01019FCF9F0101FF3911C7EFC711391E
:1004BE00FFF1E10F0FE1F1FFFF3D1D4D657179FF7A
:0804CE00FFFFFFFFFFFFFFFF2E
:00000001FF
