:100000000C945C000C946E000C946E000C946E00CA
:100010000C946E000C946E000C946E000C946E00A8
:100020000C946E000C946E000C946E000C946E0098
:100030000C946E000C946E000C946E000C946E0088
:100040000C94E2000C946E000C946E000C946E0004
:100050000C946E000C946E000C946E000C946E0068
:100060000C946E000C946E00000000002400270029
:100070002A0000000000250028002B0004040404CE
:100080000404040402020202020203030303030342
:10009000010204081020408001020408102001021F
:1000A00004081020000000080002010000030407FB
:1000B000000000000000000011241FBECFEFD8E0B8
:1000C000DEBFCDBF21E0A0E0B1E001C01D92A930AC
:1000D000B207E1F70E942C010C941C020C94000062
:1000E00090E0FC01EC55FF4F2491FC01E057FF4FDD
:1000F0003491FC01E458FF4FE491EE2309F43CC035
:10010000222339F1233091F038F42130A9F0223044
:1001100001F584B58F7D12C0273091F02830A1F011
:100120002430B9F4809180008F7D03C080918000DD
:100130008F77809380000DC084B58F7784BD09C010
:100140008091B0008F7703C08091B0008F7D809345
:10015000B000F0E0EE0FFF1FEE58FF4FA591B491F5
:100160009FB7F894611104C08C913095382302C078
:10017000EC913E2B3C939FBF08953FB7F89480913C
:10018000050190910601A0910701B091080126B5E3
:10019000A89B05C02F3F19F00196A11DB11D3FBFBF
:1001A000BA2FA92F982F8827820F911DA11DB11D4D
:1001B000BC01CD0142E0660F771F881F991F4A9549
:1001C000D1F708951F920F920FB60F9211242F931B
:1001D0003F938F939F93AF93BF9380910101909131
:1001E0000201A0910301B09104013091000123E0CC
:1001F000230F2D3720F40196A11DB11D05C026E85F
:10020000230F0296A11DB11D2093000180930101CF
:1002100090930201A0930301B09304018091050122
:1002200090910601A0910701B09108010196A11DCE
:10023000B11D8093050190930601A0930701B0932F
:100240000801BF91AF919F918F913F912F910F9096
:100250000FBE0F901F901895789484B5826084BD6E
:1002600084B5816084BD85B5826085BD85B58160BA
:1002700085BD80916E00816080936E001092810038
:1002800080918100826080938100809181008160F3
:1002900080938100809180008160809380008091B4
:1002A000B10084608093B1008091B0008160809340
:1002B000B00080917A00846080937A0080917A0007
:1002C000826080937A0080917A00816080937A00C6
:1002D00080917A00806880937A001092C10022E0B9
:1002E00030E0F901E057FF4F4491F901E458FF4F26
:1002F0008491882399F090E0880F991FFC01E859B8
:10030000FF4FA591B491FC01EE58FF4F8591949158
:100310008FB7F894EC91E42BEC938FBF2F5F3F4F96
:100320002E303105F1F690E8892E912C20E0A22E96
:1003300020E0B22E00E010E060E082E00E94700059
:1003400061E086E00E94700062E087E00E94700039
:1003500063E088E00E94700064E089E00E94700021
:1003600065E08AE00E94700066E08BE00E94700009
:1003700067E08CE00E94700068E08DE00E947000F1
:10038000E401002E02C0D595C7950A94E2F7C09506
:10039000E12CF12CD0E0BE010E2C02C075956795C2
:1003A0000A94E2F7617083E00E94700061E084E0EB
:1003B0000E94700060E084E00E9470002FEFE21A5B
:1003C000F20A88E0E816F10431F761E082E00E9469
:1003D00070000E94BD006B017C0184E6482E512C08
:1003E000612C712C0E94BD00DC01CB018C199D0990
:1003F000AE09BF09883E9340A105B10598F321E0FD
:10040000421A51086108710888EEC80E83E0D81EB0
:10041000E11CF11C411451046104710419F70F5FD0
:100420001F4F0930110509F087CFA114B10409F459
:0C04300081CF0E9400007ECFF894FFCF27
:00000001FF
