:020000040800F2
:1000000070060020350200084F0D0008910C000812
:100010004D0D00082B040008C11700080000000067
:10002000000000000000000000000000530D000868
:100030002D04000800000000510D0008A51500085F
:100040004F0200084F0200084F0200084F0200084C
:100050004F0200084F0200084F0200084F0200083C
:100060004F0200084F0200084F0200084F0200082C
:100070004F0200084F0200084F0200084F0200081C
:100080004F0200084F0200084F0200080000000065
:100090000000000000000000000000004F02000807
:1000A0004F0200084F0200084F0200084F020008EC
:1000B0004F0200084F0200084F0200084F020008DC
:1000C0004F0200084F0200084F0200084F020008CC
:1000D0004F0200084F0200084F0200080000000015
:1000E0004F0200084F0200084F0200080000000005
:1000F0000000000000000000000000004F020008A7
:10010000000000004F0200084F0200084F020008E4
:1001100000000000000000000000000000000000DF
:100120004F0200084F0200084F0200084F0200086B
:100130004F02000800000000000000000000000066
:100140000000000000000000000000004F02000856
:100150004F0200084F0200084F0200084F0200083B
:100160004F0200084F0200080000000000000000DD
:10017000000000000000000000000000000000007F
:10018000000000004F020008000000000000000016
:100190004F02000800F002F800F03CF80AA090E8D6
:1001A000000C82448344AAF10107DA4501D100F032
:1001B00031F8AFF2090EBAE80F0013F0010F18BFC3
:1001C000FB1A43F001031847701600009016000058
:1001D000103A24BF78C878C1FAD8520724BF30C873
:1001E00030C144BF04680C60704700000023002445
:1001F00000250026103A28BF78C1FBD8520728BF37
:1002000030C148BF0B6070471FB501F007FB1FBD31
:1002100010B510BD00F0CFF81146FFF7F5FF01F063
:10022000E0FA00F0EDF803B4FFF7F2FF03BC00F0D2
:10023000F5F800000948804709480047FEE7FEE757
:10024000FEE7FEE7FEE7FEE7FEE7FEE7FEE7FEE786
:1002500004480549054A064B704700002D16000862
:100260009501000870000020700600207002002038
:100270007002002053EA020C00F069802DE9F04B77
:100280004FF00006002B1FBFB3FA83F503FA05F405
:1002900024FA05F65E4012BF1643B2FA82F502FA5E
:1002A00005F4C5F120051EBF22FA05FC44EA0C0442
:1002B000203556EA044C4FEA144418BF641C4FF032
:1002C00000084FF00009904271EB030C39D300296C
:1002D00019BFB1FA81F701FA07F6B0FA80F700FA10
:1002E00007F6C7F120071EBF20FA07FC46EA0C06F6
:1002F0002037B6FBF4FCA7EB0507103F07F01F0BF8
:10030000CBF120060CFA0BFB2CFA06F644BFB346E1
:100310000026202FA4BF5E464FF0000B5BEA060CC0
:1003200008BF4FF0010B19EB0B09ABFB027C48EB4C
:100330000608C01B06FB02CC0BFB03CC71EB0C01C7
:10034000C1E70B46024641464846BDE8F08B13B56F
:100350004FF000004FF00001AFF30080BDE81C40FB
:1003600070474FF0000200B5134694469646203978
:1003700022BFA0E80C50A0E80C50B1F12001BFF45E
:10038000F7AF090728BFA0E80C5048BF0CC05DF8C4
:1003900004EB890028BF40F8042B08BF704748BF12
:1003A00020F8022B11F0804F18BF00F8012B704786
:1003B000704770477047754600F02CF8AE46050050
:1003C0006946534620F00700854618B020B5FFF770
:1003D0003FFFBDE820404FF000064FF000074FF010
:1003E00000084FF0000B21F00701AC46ACE8C00953
:1003F000ACE8C009ACE8C009ACE8C0098D4670475C
:1004000010B50446AFF300802046BDE81040FFF76A
:100410000ABF000000487047100000200149182062
:10042000ABBEFEE7260002007047FEE77047000003
:1004300070B5044600F004F90546601C02D004487B
:100440000078044400F0FCF8401BA042FAD370BDD1
:10045000000000202DE9F84FDFF8B8A100220124A8
:100460000AF1040B03254FF00F090BF1040E00BF36
:100470000B6804FA02F63340B34273D10F7907F0E8
:100480000307012F01D0022F16D187684FEA4208D7
:1004900005FA08FC27EA0C07D1F80CC00CFA08FC96
:1004A0004CEA070CC0F808C04768B7430E79C6F39A
:1004B000001696403E4346600E79F643B6070DD0CF
:1004C000C768560005FA06FC27EA0C07D1F808C0F1
:1004D0000CFA06FC4CEA070CC0F80CC00E7906F0CA
:1004E0000306022E10D1D60800EB8608D8F820604B
:1004F00057074FEAD76C09FA0CF7BE430F6907FAA2
:100500000CF73743C8F8207006684FEA420C05FA2A
:100510000CF7BE430F7907F0030707FA0CF73743D0
:1005200007604E6816F4403F6DD03B4E376847F485
:1005300080473760366822F0030706F4804600964D
:10054000364E07EB060CDCF8086897073F0F09FAF0
:1005500007F826EA0806DFF8C880404503D14FF0C7
:1005600000081EE04FE0DFF8BC80404502D14FF0AC
:10057000010816E0DFF8B080404502D14FF00208D4
:100580000FE0DFF8A880404502D14FF0030808E0F3
:10059000DFF89C80404502D14FF0040801E04FF0A5
:1005A000070808FA07F848EA0608CCF80888DAF8D5
:1005B00000605746D1F804C09E435FEACC3C00D5AA
:1005C0001E433E60DBF800605F46D1F804C09E43E6
:1005D0005FEA8C3C00D51E433E60DEF80060774643
:1005E000D1F804C09E435FEACC2C00D51E433E6088
:1005F000084F0C373E68D1F804C09E435FEA8C2C4C
:1006000000D51E433E60521C102AFFF431AFBDE8F6
:10061000F88F0000003C01404438024000300140A7
:10062000000002400004024000080240000C0240AA
:10063000001002400AB1816170470904FBE7000025
:10064000014880687047000000000020024881686F
:100650000278114481607047000000200B4810B5FB
:10066000016841F400710160016841F4806101603A
:10067000016841F480710160032000F061F80F20EF
:1006800000F006F800F024F8002010BD003C024005
:1006900070B50D4D04464FF47A712878B1FBF0F037
:1006A0000A490968B1FBF0F000F0DEFA48B9102CF5
:1006B00007D200222146501E00F022F800206C6074
:1006C00070BD012070BD0000000000200C00002063
:1006D0000A4808B5016841F480410160006800F4EF
:1006E000804000900548001F016841F08051016082
:1006F000006800F08050009008BD000044380240BF
:10070000F0B40E4B1B680C46C3F30223C3F107057C
:10071000042D00D90425191D072901D2002300E06A
:10072000DB1E012606FA05F1491E214099409E4034
:10073000761E16403143F0BC01F043B80CED00E0EA
:10074000064900F0070208684FF6FF03184040EA28
:100750000220034A10430860704700000CED00E0DF
:100760000000FA052DE9F0470E46050065D0DFF8D8
:100770001481D8F80000F7B200F00700B04207D2A9
:1007800088F80070D8F8000000F00700B04254D19B
:1007900028683D4C810712D5400703D5206840F4F6
:1007A000E05020602878000703D5206840F46040BE
:1007B00020602068A96820F0F000084320602878B5
:1007C000C0072DD0304968680839012812D00228A6
:1007D00013D0032811D00968890700292DDA216870
:1007E00021F0030101432160FFF72AFF814641F216
:1007F000883A0EE009688903EFE709688901ECE7A8
:10080000FFF71EFFA0EB0901514502D90320BDE807
:10081000F0872068696800F00C00B0EB810FEFD121
:10082000D8F80010404601F00701B14207D907701F
:10083000006800F00700B04201D00120E7E7287807
:10084000400705D52068E96820F4E050084320609F
:100850002878000706D52068296920F4604040EA1E
:10086000C100206000F018F82168084AC1F30311A4
:10087000515CC8400649086006480068FFF708FF59
:100880000020C4E7003C0240083802402618000857
:100890000C00002004000020154810B5006810F07E
:1008A0000C02144813D01449042A0FD0082A0ED180
:1008B0000F4C241F2268236802F03F025B0207D519
:1008C0002068C0F38810A0FB010106E0084610BDB7
:1008D0002168C1F38811A1FB00010023FFF7CAFCC6
:1008E0002168C1F30141491C4900B0FBF1F010BD82
:1008F000083802400024F40040787D012DE9F84FCB
:1009000004006ED02078DFF84C93C007A9F10405ED
:100910004AD009F104000168C1F38101012908D01E
:100920000068C0F3810002280AD1D9F80000400213
:1009300006D52868800337D560680028E1D033E009
:100940006068B0F5803F10D0B0F5A02F286810D0B7
:1009500020F480302860286820F4802028606068B7
:10096000A8B1FFF76DFE06460DE0286840F4803020
:10097000F4E740F480202860F7E700BFFFF760FE4F
:10098000801B642873D828688003F7D50CE0FFF734
:1009900057FE064605E000BFFFF752FE801B6428A5
:1009A000F0D828688003F7D42078DFF8AC8280077D
:1009B0004FF0000A3ED5A748001D016811F00C0F4A
:1009C00008D00068C0F3810002280BD1D9F80000DC
:1009D000400207D42868800716D5E068012800D1B6
:1009E00012E033E1E068B8B10120C8F80000FFF779
:1009F00027FE064605E000BFFFF722FE801B022807
:100A0000C0D828688007F7D52868216920F0F80049
:100A100040EAC10028600DE0C8F800A0FFF710FE12
:100A2000064604E0FFF70CFE801B02281FD828684A
:100A30008007F7D42078000722D5864F8748616960
:100A4000703771B101210160FFF7FAFD064604E03D
:100A5000FFF7F6FD801B022809D838688007F7D514
:100A60000EE0C0F800A0FFF7EBFD064605E082E0CF
:100A7000FFF7E6FD801B02287DD838688007F7D491
:100A80002078400768D5DFF8CCB100270BF13C0B8C
:100A9000DBF80000C0000BD4DBF8001041F08051FF
:100AA000CBF80010DBF80000012700F08050009028
:100AB0006B4E3068C00510D4306840F480703060F0
:100AC000FFF7BEFD009005E0FFF7BAFD0099401A60
:100AD000022850D83068C005F6D55E4EA0686C3646
:100AE00001280FD00528306810D020F001003060B8
:100AF000306820F004003060A068B8B1FFF7A0FDB6
:100B000000900FE0306840F00100F4E740F004008E
:100B10003060F7E7FFF794FD0099411A41F2883001
:100B2000814266D830688007F4D50EE0FFF788FD73
:100B3000009007E0FFF784FD0099411A41F28830E8
:100B4000814256D830688007F4D42FB1DBF800100A
:100B500021F08051CBF80010A069C8B33D49091DB0
:100B60000968C1F3810102294AD00228504607D002
:100B7000C8F8600000E03CE0FFF762FD04463BE09F
:100B80004746C8F86000FFF75BFD064605E000BF7A
:100B9000FFF756FD801B02282BD828688001F7D468
:100BA000D4E907010843A16A2E4A490802EB014132
:100BB000626A41EA8211084394F82C1040EA01610C
:100BC000C9F8001001203866FFF73AFD044606E038
:100BD0003EE000BFFFF734FD001B022809D828685B
:100BE0008001F7D534E000BFFFF72AFD001B022883
:100BF00002D90320BDE8F88F28688001F4D427E0EB
:100C00000128F7D0D9F80000E26900F48001914290
:100C10001CD1226A00F03F01914217D147F6C07102
:100C2000626A0140B1EB821F10D1A26A4FF0FF331C
:100C300000F4403103EB5202B1EB024F06D194F8BD
:100C40002C1000F07060B0EB016F01D00120D1E7F3
:100C50000020CFE70438024000004742800E4742A0
:100C6000007000400000FFFF10B5401EB0F1807F13
:100C700001D3012010BD4FF0E02460610F21601707
:100C800000F09FFD0020A06107202061002010BD22
:100C9000FEE700002DE9F04387B014216846FFF716
:100CA00060FB26480024016841F0100101600168E2
:100CB00001F010010591016841F004010160016833
:100CC00001F004010591016841F00801016000682C
:100CD0001B4F00F008004FF6FF76059000223146CA
:100CE0003846FFF7A7FCDFF85C800022032140466E
:100CF000FFF7A0FCDFF85090002231464846FFF78E
:100D000099FC01250096CDE90154694638460394C3
:100D1000FFF7A0FB03200090CDE90154694640464F
:100D20000394FFF797FB0096CDE9015469464846C6
:100D30000394FFF78FFB07B0BDE8F0833038024023
:100D40000010024000080240000C0240FEE7FEE7EF
:100D5000704770472DE9F05F5C4C01221146204638
:100D6000FFF768FC012202212046FFF763FC012205
:100D700004212046FFF75EFC012208212046FFF7F0
:100D800059FC012210212046FFF754FC01222021AA
:100D90002046FFF74FFC012240212046FFF74AFC86
:100DA000012280212046FFF745FC01221502294639
:100DB0002046FFF73FFC0122560231462046FFF74E
:100DC00039FC0122970239462046FFF733FC4FF4E5
:100DD0000068012241462046FFF72CFC4FF4805961
:100DE000012249462046FFF725FC4FF4005A012214
:100DF00051462046FFF71EFC4FF4804B0122594616
:100E00002046FFF717FC0122D1032046FFF712FC12
:100E10002F4C012211462046FFF70CFC0122022133
:100E20002046FFF707FC012204212046FFF702FCC1
:100E3000012208212046FFF7FDFB01221021204658
:100E4000FFF7F8FB012220212046FFF7F3FB0122E8
:100E500040212046FFF7EEFB012280212046FFF7CC
:100E6000E9FB012229462046FFF7E4FB0122314637
:100E70002046FFF7DFFB012239462046FFF7DAFB69
:100E8000012241462046FFF7D5FB01224946204674
:100E9000FFF7D0FB012251462046FFF7CBFB012292
:100EA00059462046FFF7C6FB0122D1032046FFF733
:100EB000C1FB084C012211462046FFF7BBFB204630
:100EC000BDE8F05F01220221FFF7B4BB000C024035
:100ED00000100240000802402DE9F05F00F0AEFB78
:100EE0008F4C012211462046FFF7A4FB6420FFF738
:100EF0009FFA012202212046FFF79CFB6420FFF7A6
:100F000097FA012204212046FFF794FB6420FFF7A3
:100F10008FFA012208212046FFF78CFB6420FFF79F
:100F200087FA012210212046FFF784FB6420FFF797
:100F30007FFA012220212046FFF77CFB6420FFF787
:100F400077FA012240212046FFF774FB6420FFF767
:100F50006FFA012280212046FFF76CFB6420FFF727
:100F600067FA0122150229462046FFF763FB642039
:100F7000FFF75EFA0122560231462046FFF75AFB80
:100F80006420FFF755FA0122970239462046FFF701
:100F900051FB6420FFF74CFA4FF4006801224146F0
:100FA0002046FFF747FB6420FFF742FA4FF48059D1
:100FB000012249462046FFF73DFB6420FFF738FA3F
:100FC0004FF4005A012251462046FFF733FB6420BC
:100FD000FFF72EFA4FF4804B012259462046FFF7C7
:100FE00029FB6420FFF724FA0122D1032046FFF7F2
:100FF00021FB6420FFF71CFA4A4C012211462046CF
:10100000FFF718FB6420FFF713FA012202212046A4
:10101000FFF710FB6420FFF70BFA012204212046A2
:10102000FFF708FB6420FFF703FA0122082120469E
:10103000FFF700FB6420FFF7FBF901221021204697
:10104000FFF7F8FA6420FFF7F3F901222021204688
:10105000FFF7F0FA6420FFF7EBF901224021204668
:10106000FFF7E8FA6420FFF7E3F901228021204628
:10107000FFF7E0FA6420FFF7DBF90122294620465A
:10108000FFF7D8FA6420FFF7D3F901223146204652
:10109000FFF7D0FA6420FFF7CBF90122394620464A
:1010A000FFF7C8FA6420FFF7C3F901224146204642
:1010B000FFF7C0FA6420FFF7BBF90122494620463A
:1010C000FFF7B8FA6420FFF7B3F901225146204632
:1010D000FFF7B0FA6420FFF7ABF90122594620462A
:1010E000FFF7A8FA6420FFF7A3F90122D1032046F5
:1010F000FFF7A0FA6420FFF79BF90B4C0122114681
:101100002046FFF797FA6420FFF792F901220221A7
:101110002046FFF78FFABDE8F05F6420FFF788B93B
:10112000000C024000100240000802402DE9F05F70
:1011300000F084FAFF4C012211462046FFF77AFAAC
:101140006420FFF775F9002201212046FFF772FAAB
:101150006420FFF76DF9012202212046FFF76AFAA9
:101160006420FFF765F9002202212046FFF762FAAA
:101170006420FFF75DF9012204212046FFF75AFAA7
:101180006420FFF755F9002204212046FFF752FAA8
:101190006420FFF74DF9012208212046FFF74AFAA3
:1011A0006420FFF745F9002208212046FFF742FAA4
:1011B0006420FFF73DF9012210212046FFF73AFA9B
:1011C0006420FFF735F9002210212046FFF732FA9C
:1011D0006420FFF72DF9012220212046FFF72AFA8B
:1011E0006420FFF725F9002220212046FFF722FA8C
:1011F0006420FFF71DF9012240212046FFF71AFA6B
:101200006420FFF715F9002240212046FFF712FA6B
:101210006420FFF70DF9012280212046FFF70AFA2A
:101220006420FFF705F9002280212046FFF702FA2B
:101230006420FFF7FDF80122150229462046FFF73A
:10124000F9F96420FFF7F4F8002229462046FFF759
:10125000F1F96420FFF7ECF80122560231462046EE
:10126000FFF7E8F96420FFF7E3F800223146204653
:10127000FFF7E0F96420FFF7DBF801229702394617
:101280002046FFF7D7F96420FFF7D2F8002239464D
:101290002046FFF7CFF96420FFF7CAF84FF4006843
:1012A000012241462046FFF7C5F96420FFF7C0F848
:1012B000002241462046FFF7BDF96420FFF7B8F849
:1012C0004FF48059012249462046FFF7B3F96420C4
:1012D000FFF7AEF8002249462046FFF7ABF964203D
:1012E000FFF7A6F84FF4005A012251462046FFF7B7
:1012F000A1F96420FFF79CF8002251462046FFF731
:1013000099F96420FFF794F84FF4804B0122594675
:101310002046FFF78FF96420FFF78AF8002259462C
:101320002046FFF787F96420FFF782F80122D103F6
:101330002046FFF77FF96420FFF77AF80022E901E1
:101340002046FFF777F96420FFF772F87A4C012204
:1013500011462046FFF76EF96420FFF769F8002276
:1013600001212046FFF766F96420FFF761F80122AA
:1013700002212046FFF75EF96420FFF759F80022AA
:1013800002212046FFF756F96420FFF751F80122A9
:1013900004212046FFF74EF96420FFF749F80022A8
:1013A00004212046FFF746F96420FFF741F80122A7
:1013B00008212046FFF73EF96420FFF739F80022A4
:1013C00008212046FFF736F96420FFF731F80122A3
:1013D00010212046FFF72EF96420FFF729F800229C
:1013E00010212046FFF726F96420FFF721F801229B
:1013F00020212046FFF71EF96420FFF719F800228C
:1014000020212046FFF716F96420FFF711F801228A
:1014100040212046FFF70EF96420FFF709F800226B
:1014200040212046FFF706F96420FFF701F801226A
:1014300080212046FFF7FEF86420FEF7F9FF002226
:1014400080212046FFF7F6F86420FEF7F1FF012225
:1014500029462046FFF7EEF86420FEF7E9FF002258
:1014600029462046FFF7E6F86420FEF7E1FF012257
:1014700031462046FFF7DEF86420FEF7D9FF002250
:1014800031462046FFF7D6F86420FEF7D1FF01224F
:1014900039462046FFF7CEF86420FEF7C9FF002248
:1014A00039462046FFF7C6F86420FEF7C1FF012247
:1014B00041462046FFF7BEF86420FEF7B9FF002240
:1014C00041462046FFF7B6F86420FEF7B1FF01223F
:1014D00049462046FFF7AEF86420FEF7A9FF002238
:1014E00049462046FFF7A6F86420FEF7A1FF012237
:1014F00051462046FFF79EF86420FEF799FF002230
:1015000051462046FFF796F86420FEF791FF01222E
:1015100059462046FFF78EF86420FEF789FF002227
:1015200059462046FFF786F86420FEF781FF012226
:10153000D10303E0000C0240001002402046FFF7F8
:1015400079F86420FEF774FF0022E9012046FFF7D6
:1015500071F86420FEF76CFF114C01221146204601
:10156000FFF768F86420FEF763FF002201212046A0
:10157000FFF760F86420FEF75BFF0122022120469E
:10158000FFF758F86420FEF753FF0022022120469F
:10159000FFF750F8BDE8F05F6420FEF749BF000098
:1015A00000080240FFF752B810B592B030216846EB
:1015B000FEF7D7FE14210CA8FEF7D3FE194800242D
:1015C000016841F080510160006800F08050119086
:1015D0001548016821F4404141F400410160006870
:1015E000069400F4404011900220009001200390E6
:1015F000102004906846FFF781F908B172B6FEE743
:101600000F20CDE90C048020CDE90E0400210CA8A8
:101610001094FFF7A7F8002801D072B6FEE712B0C9
:1016200010BD0000403802400070004002480168D0
:1016300041F470010160704788ED00E02DE9F05F32
:101640005C4C002201212046FEF7F4FF002202211B
:101650002046FEF7EFFF002204212046FEF7EAFFB6
:10166000002208212046FEF7E5FF00221021204637
:10167000FEF7E0FF002220212046FEF7DBFF0022DC
:1016800040212046FEF7D6FF002280212046FEF7AB
:10169000D1FFA515002229462046FEF7CBFF66158F
:1016A000002231462046FEF7C5FF271500223946A5
:1016B0002046FEF7BFFF4FF4006800224146204657
:1016C000FEF7B8FF4FF48059002249462046FEF746
:1016D000B1FF4FF4005A002251462046FEF7AAFF00
:1016E0004FF4804B002259462046FEF7A3FF00220C
:1016F000E9012046FEF79EFF2F4C002201212046E3
:10170000FEF798FF002202212046FEF793FF0022F9
:1017100004212046FEF78EFF002208212046FEF716
:1017200089FF002210212046FEF784FF002220219D
:101730002046FEF77FFF002240212046FEF77AFF79
:10174000002280212046FEF775FF00222946204610
:10175000FEF770FF002231462046FEF76BFF0022A5
:1017600039462046FEF766FF002241462046FEF736
:1017700061FF002249462046FEF75CFF00225146E9
:101780002046FEF757FF002259462046FEF752FF3B
:101790000022E9012046FEF74DFF084C00220121FE
:1017A0002046FEF747FF2046BDE8F05F00220221F9
:1017B000FEF740BF000C024000100240000802404B
:1017C000FEE70907090E002804DB00F1E02080F89D
:1017D0000014704700F00F0000F1E02080F8141DA5
:1017E0007047FEF73BFFFFF7DFFEFFF753FA4FF4BA
:1017F0007A74FFF7AFFA2046FEF71AFEFFF71EFFD6
:101800002046FEF715FEFFF767FB2046FEF710FEA9
:10181000FFF78CFC2046FEF70BFEEAE74FF0407026
:10182000E1EE100A70470000000000000000010215
:1018300003040607080900005818000800000020EB
:1018400010000000D00100086818000810000020F7
:1018500060060000EC01000801000000100000001C
:08186000000000000024F40068
:040000050800019559
:00000001FF
