:100000000C9462000C948A000C948A000C948A0070
:100010000C948A000C948A000C948A000C948A0038
:100020000C948A000C948A000C948A000C948A0028
:100030000C948A000C948A000C948A000C948A0018
:100040000C9429020C948A000C9499020C9473026B
:100050000C948A000C948A000C948A000C948A00F8
:100060000C948A000C948A000000000024002700F1
:100070002A000000000023002600290000000000E4
:10008000250028002B0004040404040404040202D4
:100090000202020203030303030301020408102007
:1000A0004080010204081020010204081020000012
:1000B0000008000201000003040700000000000027
:1000C0000000A50311241FBECFEFD8E0DEBFCDBFD7
:1000D00011E0A0E0B1E0E2E0F8E002C005900D928E
:1000E000A231B107D9F721E0A2E1B1E001C01D9230
:1000F000A83BB207E1F710E0C2E6D0E004C02197C8
:10010000FE010E94F403C136D107C9F70E94CB0259
:100110000C94FF030C940000FC01538D448D252F9B
:1001200030E0842F90E0821B930B541710F0CF9691
:10013000089501970895FC01918D828D981761F0C3
:10014000828DDF01A80FB11D5D968C91928D9F5F0E
:100150009F73928F90E008958FEF9FEF0895FC01B9
:10016000918D828D981731F0828DE80FF11D858D6C
:1001700090E008958FEF9FEF0895FC01918D228DFF
:10018000892F90E0805C9F4F821B91098F73992784
:100190000895FC01848DDF01A80FB11DA35ABF4F44
:1001A0002C91848D90E001968F739927848FA68976
:1001B000B7892C93A089B1898C91837080648C93CA
:1001C000938D848D981306C00288F389E02D808179
:1001D0008F7D80830895EF92FF920F931F93CF93AB
:1001E000DF93EC0181E0888F9B8D8C8D981305C087
:1001F000E889F989808185FD26C0F62E0B8D10E0F7
:100200000F5F1F4F0F731127E02E8C8DE8120CC06B
:100210000FB607FCFACFE889F989808185FFF5CF11
:10022000CE010E94C900F1CF8B8DFE01E80FF11DB8
:10023000E35AFF4FF0829FB7F8940B8FEA89FB894E
:10024000808180620AC09FB7F894EE89FF8960833D
:10025000E889F98980818370806480839FBF81E011
:1002600090E0DF91CF911F910F91FF90EF90089553
:10027000CF93DF93EC01888D8823C9F0EA89FB894D
:10028000808185FD05C0A889B9898C9186FD0FC044
:100290000FB607FCF5CF808185FFF2CFA889B98919
:1002A0008C9185FFEDCFCE010E94C900E7CFDF9191
:1002B000CF9108958BE191E00E94BD0021E0892B50
:1002C00009F420E0822F089580E090E0892B29F046
:1002D0000E945A0181110C9400000895833081F02E
:1002E00028F4813099F08230A1F008958730A9F088
:1002F0008830B9F08430D1F4809180008F7D03C0C4
:10030000809180008F7780938000089584B58F77E7
:1003100002C084B58F7D84BD08958091B0008F7731
:1003200003C08091B0008F7D8093B00008951F932B
:10033000CF93DF93EBEBF0E09491E7EAF0E0D49118
:10034000E3E9F0E0C491CC23D1F0182F992319F000
:10035000892F0E946E01EC2FF0E0EE0FFF1FE45892
:10036000FF4FA591B4919FB7F894111104C08C91DF
:10037000D095D82302C0EC91DE2BDC939FBFDF9198
:10038000CF911F910895CF93DF93E0EBF0E084913C
:10039000ECE9F0E0D491E8E8F0E0C491CC2391F0EE
:1003A00081110E946E01EC2FF0E0EE0FFF1FEE585E
:1003B000FF4FA591B491EC91ED2381E090E021F401
:1003C00080E002C080E090E0DF91CF910895CF926D
:1003D000DF92EF92FF920F931F93CF93DF936C0105
:1003E0007A018B01C0E0D0E0CE15DF0581F0D801A5
:1003F0006D918D01D601ED91FC910190F081E02D80
:10040000C6010995892B11F02196EECF7E01C70117
:10041000DF91CF911F910F91FF90EF90DF90CF90E0
:100420000895089580E090E00895009769F0FC0138
:1004300001900020E9F73197AF01481B590BBC012F
:100440008BE191E00C94E70180E090E008950E9438
:10045000FA031F920F920FB60F9211242F933F931E
:100460008F939F93AF93BF93809117019091180141
:10047000A0911901B0911A013091160123E0230FC8
:100480002D3720F40196A11DB11D05C026E8230FCC
:100490000296A11DB11D2093160180931701909320
:1004A0001801A0931901B0931A0180911201909143
:1004B0001301A0911401B09115010196A11DB11D68
:1004C0008093120190931301A0931401B09315012E
:1004D000BF91AF919F918F913F912F910F900FBE40
:1004E0000F901F9018951F920F920FB60F92112424
:1004F0002F933F934F935F936F937F938F939F932C
:10050000AF93BF93EF93FF938BE191E00E94C900FB
:10051000FF91EF91BF91AF919F918F917F916F91DB
:100520005F914F913F912F910F900FBE0F901F90B1
:1005300018951F920F920FB60F9211242F938F933D
:100540009F93EF93FF93E0912B01F0912C01808119
:10055000E0913101F091320182FD12C090818091D1
:1005600034018F5F8F7320913501821751F0E09134
:100570003401F0E0E55EFE4F958F8093340101C0B9
:100580008081FF91EF919F918F912F910F900FBEDE
:100590000F901F901895CF93DF93CDB7DEB7A1973B
:1005A0000FB6F894DEBF0FBECDBF789484B58260DD
:1005B00084BD84B5816084BD85B5826085BD85B507
:1005C000816085BD80916E00816080936E00109285
:1005D0008100809181008260809381008091810000
:1005E0008160809381008091800081608093800091
:1005F0008091B10084608093B1008091B0008160EF
:100600008093B00080917A00846080937A0080911A
:100610007A00826080937A0080917A008160809372
:100620007A0080917A00806880937A001092C100ED
:10063000E7EAF0E02491E3E9F0E08491882399F07F
:1006400090E0880F991FFC01E859FF4FA591B491E4
:10065000FC01E458FF4F859194918FB7F894EC9189
:10066000E22BEC938FBFECE9F0E02491E8E8F0E0B6
:1006700084918823C9F090E0880F991FFC01E85904
:10068000FF4F45915491FC01E458FF4FA591B4915F
:100690009FB7F894FA018081322F309583238083AD
:1006A000EC91E22BEC939FBF8AE0882E912CA12C39
:1006B000B12C0E94C3016C01990FEE08FF08F7FEF0
:1006C00020C06DE28BE191E00E94EB0022273327EE
:1006D000A9012C193D094E095F0919A2CE01819685
:1006E0007C01CA01B901A50194010E94D203605D99
:1006F000F70162937F01211531054105510589F705
:1007000015C0A701960119A2CE0181967C01CA01EC
:10071000B901A50194010E94D203605DF7016293C3
:100720007F01211531054105510589F7C7010E9457
:1007300015020E94C301019711F481E001C080E01D
:100740000E9497010E946401B4CFEBE1F1E01382B3
:10075000128288EE93E0A0E0B0E084839583A683C4
:10076000B78384E091E09183808385EC90E0958766
:10077000848784EC90E09787868780EC90E0918B6B
:10078000808B81EC90E0938B828B82EC90E0958B58
:10079000848B86EC90E0978B868B118E128E138E55
:1007A000148E0895A1E21A2EAA1BBB1BFD010DC0D9
:1007B000AA1FBB1FEE1FFF1FA217B307E407F50711
:1007C00020F0A21BB30BE40BF50B661F771F881FED
:1007D000991F1A9469F760957095809590959B0183
:1007E000AC01BD01CF010895EE0FFF1F0590F491FC
:1007F000E02D099481E090E0F8940C94FF03F894C4
:02080000FFCF28
:1008020000000000EB00E7018C003801BD009B00F6
:02081200AF0035
:00000001FF
