:100000000C945C000C946E000C946E000C946E00CA
:100010000C946E000C946E000C946E000C946E00A8
:100020000C946E000C946E000C946E000C946E0098
:100030000C946E000C946E000C946E000C946E0088
:100040000C9425010C946E000C946E000C946E00C0
:100050000C946E000C946E000C946E000C946E0068
:100060000C946E000C946E00000000080002010069
:100070000003040700000000000000000000000072
:10008000250028002B0000000000240027002A0083
:10009000040404040404040402020202020203032E
:1000A0000303030301020408102040800102040836
:1000B000102001020408102011241FBECFEFD8E049
:1000C000DEBFCDBF21E0A0E0B1E001C01D92A930AC
:1000D000B207E1F70E946F010C9417020C94000024
:1000E00090E0FC01EC55FF4F2491FC01E057FF4FDD
:1000F0008491882399F090E0880F991FFC01EA57BA
:10010000FF4FA591B491FC01E458FF4F8591949164
:100110008FB7F894EC91E22BEC938FBF089590E0A9
:10012000FC01E859FF4F2491FC01EC55FF4F34913D
:10013000FC01E057FF4FE491EE2309F43CC0222379
:1001400039F1233091F038F42130A9F0223001F553
:1001500084B58F7D12C0273091F02830A1F0243073
:10016000B9F4809180008F7D03C0809180008F77EB
:10017000809380000DC084B58F7784BD09C08091C5
:10018000B0008F7703C08091B0008F7D8093B00066
:10019000F0E0EE0FFF1FE458FF4FA591B4919FB719
:1001A000F894611104C08C913095382302C0EC9111
:1001B0003E2B3C939FBF08953FB7F8948091050173
:1001C00090910601A0910701B091080126B5A89B66
:1001D00005C02F3F19F00196A11DB11D3FBFBA2FD9
:1001E000A92F982F8827820F911DA11DB11DBC0139
:1001F000CD0142E0660F771F881F991F4A95D1F7FE
:1002000008950F931F93CF93DF93C0E0D0E0082FA2
:1002100010E0B8010C2E02C0759567950A94E2F7BC
:10022000617083E00E948F0061E085E00E948F0092
:1002300060E085E00E948F002196C830D10549F723
:10024000DF91CF911F910F9108951F920F920FB6DA
:100250000F9211242F933F938F939F93AF93BF934C
:100260008091010190910201A0910301B0910401DC
:100270003091000123E0230F2D3720F40196A11DBA
:10028000B11D05C026E8230F0296A11DB11D2093C4
:1002900000018093010190930201A0930301B093A8
:1002A00004018091050190910601A0910701B09190
:1002B00008010196A11DB11D8093050190930601CF
:1002C000A0930701B0930801BF91AF919F918F91C7
:1002D0003F912F910F900FBE0F901F90189578941B
:1002E00084B5826084BD84B5816084BD85B582603B
:1002F00085BD85B5816085BD80916E0081608093EC
:100300006E00109281008091810082608093810054
:100310008091810081608093810080918000816064
:10032000809380008091B10084608093B1008091BF
:10033000B00081608093B00080917A0084608093E7
:100340007A0080917A00826080937A0080917A00AE
:10035000816080937A0080917A00806880937A002F
:100360001092C10084E00E94700082E00E94700040
:1003700086E00E94700085E00E94700083E00E9489
:10038000700060E084E00E948F0080E80E9401011C
:1003900061E084E00E948F0000E810E090E0A92E68
:1003A00090E0B92EC0E0D0E060E084E00E948F00D1
:1003B000C8010C2E02C0959587950A94E2F70E9419
:1003C000010161E084E00E948F000E94DC002B01AB
:1003D0003C0188EEC82E83E0D82EE12CF12C0E943F
:1003E000DC00DC01CB0184199509A609B709883E18
:1003F0009340A105B10598F381E0C81AD108E1083E
:10040000F10828EE420E23E0521E611C711CC1143B
:10041000D104E104F10419F72196C830D10521F681
:10042000A114B10409F4BECF0E940000BBCFF89420
:02043000FFCFFC
:00000001FF
