:100000000C945C000C9479000C9479000C947900A9
:100010000C9479000C9479000C9479000C9479007C
:100020000C9479000C9479000C9479000C9479006C
:100030000C9479000C9479000C9479000C9479005C
:100040000C94ED000C9479000C9479000C947900D8
:100050000C9479000C9479000C9479000C9479003C
:100060000C9479000C947900000000002400270013
:100070002A0000000000250028002B0004040404CE
:100080000404040402020202020203030303030342
:10009000010204081020408001020408102001021F
:1000A00004081020000000080002010000030407FB
:1000B000000000000000000011241FBECFEFD8E0B8
:1000C000DEBFCDBF11E0A0E0B1E0EAE2F4E002C0A3
:1000D00005900D92A039B107D9F721E0A0E9B1E070
:1000E00001C01D92A939B207E1F70E9437010C94B3
:1000F00013020C94000090E0FC01EC55FF4F24919A
:10010000FC01E057FF4F3491FC01E458FF4FE491AC
:10011000EE2309F43CC0222339F1233091F038F466
:100120002130A9F0223001F584B58F7D12C027302F
:1001300091F02830A1F02430B9F4809180008F7DB7
:1001400003C0809180008F77809380000DC084B5BC
:100150008F7784BD09C08091B0008F7703C08091F4
:10016000B0008F7D8093B000F0E0EE0FFF1FEE58DF
:10017000FF4FA591B4919FB7F894611104C08C9181
:100180003095382302C0EC913E2B3C939FBF0895DD
:100190003FB7F8948091950190919601A0919701B5
:1001A000B091980126B5A89B05C02F3F19F0019684
:1001B000A11DB11D3FBFBA2FA92F982F8827820FED
:1001C000911DA11DB11DBC01CD0142E0660F771F3D
:1001D000881F991F4A95D1F708951F920F920FB665
:1001E0000F9211242F933F938F939F93AF93BF93BD
:1001F0008091910190919201A0919301B09194010D
:100200003091900123E0230F2D3720F40196A11D9A
:10021000B11D05C026E8230F0296A11DB11D209334
:1002200090018093910190939201A0939301B093D8
:1002300094018091950190919601A0919701B091C0
:1002400098010196A11DB11D80939501909396018F
:10025000A0939701B0939801BF91AF919F918F9117
:100260003F912F910F900FBE0F901F90189578948B
:1002700084B5826084BD84B5816084BD85B58260AB
:1002800085BD85B5816085BD80916E00816080935C
:100290006E001092810080918100826080938100C5
:1002A00080918100816080938100809180008160D5
:1002B000809380008091B10084608093B100809130
:1002C000B00081608093B00080917A008460809358
:1002D0007A0080917A00826080937A0080917A001F
:1002E000816080937A0080917A00806880937A00A0
:1002F0001092C10022E030E0F901E057FF4F449135
:10030000F901E458FF4F8491882399F090E0880F19
:10031000991FFC01E859FF4FA591B491FC01EE58DB
:10032000FF4F859194918FB7F894EC91E42BEC9367
:100330008FBF2F5F3F4F2D303105F1F620E1822E28
:1003400021E0922E30E0A32E30E0B32E00E111E048
:10035000C0E0D1E090E0E92E91E0F92EF701808134
:10036000F2E0EF0EF11C61E00E947B0020E1E2165A
:1003700021E0F20699F78881229660E00E947B00D6
:10038000E12CF12CF801EE0DFF1D60818AE00E9446
:100390007B0060E08BE00E947B0061E08BE00E94CC
:1003A0007B0082E0E80EF11C90E1E916F10451F7C0
:1003B00060E08CE00E947B0061E08CE00E947B00AA
:1003C0000E94C8002B013C0185E0C82ED12CE12CF5
:1003D000F12C0E94C800DC01CB0184199509A60903
:1003E000B709883E9340A105B10598F3E1E0CE1A24
:1003F000D108E108F108F8EE4F0EF3E05F1E611C32
:10040000711CC114D104E104F10419F7005F1F4FFE
:100410008C169D0609F09ECFA114B10409F496CF65
:0A0420000E94000093CFF894FFCF74
:10042A000200030004000500060007000800090096
:10043A0000000000000000000000000000000000B2
:10044A0000000000000000000100000000000000A1
:10045A000000000000000100010000000000000090
:10046A000000000001000000010000000000000080
:10047A000000000000000000010000000000000071
:10048A000000000000000000010000000000000061
:10049A00000000000100010001000100010000004D
:1004AA000000000000000000000000000000000042
:00000001FF
